{
  "_format": "hh-sol-artifact-1",
  "contractName": "MockVerifier",
  "sourceName": "src/MockVerifier.sol",
  "abi": [
    {
      "inputs": [
        {
          "internalType": "bool",
          "name": "valid",
          "type": "bool"
        }
      ],
      "name": "setValidProof",
      "outputs": [],
      "stateMutability": "nonpayable",
      "type": "function"
    },
    {
      "inputs": [
        {
          "internalType": "uint256[2]",
          "name": "proof_a",
          "type": "uint256[2]"
        },
        {
          "internalType": "uint256[2][2]",
          "name": "proof_b",
          "type": "uint256[2][2]"
        },
        {
          "internalType": "uint256[2]",
          "name": "proof_c",
          "type": "uint256[2]"
        },
        {
          "internalType": "uint256[]",
          "name": "publicInputs",
          "type": "uint256[]"
        }
      ],
      "name": "verifyProof",
      "outputs": [
        {
          "internalType": "bool",
          "name": "",
          "type": "bool"
        }
      ],
      "stateMutability": "view",
      "type": "function"
    }
  ],
  "bytecode": "0x608060405234801561001057600080fd5b506101b5806100206000396000f3fe608060405234801561001057600080fd5b50600436106100365760003560e01c80637deb74b51461003b578063c32e370e1461005e575b600080fd5b61005c61004936600461008f565b6000805460ff1916911515919091179055565b005b61007b61006c3660046100cf565b60005460ff1695945050505050565b604051901515815260200160405180910390f35b6000602082840312156100a157600080fd5b813580151581146100b157600080fd5b9392505050565b80604081018310156100c957600080fd5b92915050565b600080600080600061012086880312156100e857600080fd5b6100f287876100b8565b945060c086018781111561010557600080fd5b60408701945061011588826100b8565b93505061010086013567ffffffffffffffff8082111561013457600080fd5b818801915088601f83011261014857600080fd5b81358181111561015757600080fd5b8960208260051b850101111561016c57600080fd5b969995985093965060200194939250505056fea2646970667358221220a3ccad0ea3c2fc89addd169650aaf5c31199309cccd72bebfda2eb2a17005c3e64736f6c63430008130033",
  "linkReferences": {},
  "deployedLinkReferences": {}
}